:020000040801F1
:1000000000000220016D0108416A0108496A0108E7
:10001000516A0108596A0108616A0108000000007C
:100020000000000000000000000000002151010855
:10003000696A01080000000071530108D9530108E2
:10004000816D0108816D0108816D0108816D0108D4
:10005000816D0108816D0108816D0108816D0108C4
:10006000816D0108816D0108816D0108816D0108B4
:10007000816D0108816D0108816D0108816D0108A4
:10008000796A0108816D0108816D0108816D01089F
:10009000816D0108816D0108816D0108816D010884
:1000A000816D0108816D0108816D0108816D010874
:1000B000816D0108816D0108816D0108816D010864
:1000C000816D0108816D0108816D0108816D010854
:1000D000816D01088D6A0108A16A0108816D01081E
:1000E000816D0108816D0108816D0108816D010834
:1000F000816D0108816D0108816D0108816D010824
:10010000816D0108816D0108816D0108816D010813
:10011000816D0108816D0108B56A0108816D0108D2
:10012000816D0108816D0108C96A0108816D0108AE
:10013000816D0108816D0108816D0108816D0108E3
:10014000816D0108816D0108816D0108816D0108D3
:10015000816D0108816D0108816D0108816D0108C3
:10016000816D0108816D0108816D0108816D0108B3
:10017000816D0108816D0108816D0108000000009A
:08018000816D0108816D010889
:1001900010B5054C237833B9044B13B10448AFF3C1
:1001A00000800123237010BD8C000020000000009F
:1001B000B090010808B5034B1BB103490348AFF3E6
:1001C000008008BD0000000090000020B0900108F1
:1001D00053B94AB9002908BF00281CBF4FF0FF31AE
:1001E0004FF0FF3000F088B9ADF1080C6DE904CE96
:1001F00000F006F8DDF804E0DDE9022304B0704702
:100200002DE9F047089D0F4604468C46002B48D147
:100210008A42164661D9B2FA82F34BB1C3F1200289
:1002200001FA03FC20FA02F29E4042EA0C0C9C40C8
:100230004FEA164EB7B2BCFBFEF1220C0EFB11CCFE
:1002400042EA0C4201FB07F0904209D9B21801F1D1
:10025000FF3C80F0EE80904240F2EB800239324465
:10026000121AA4B2B2FBFEF00EFB102244EA0244C2
:1002700000FB07F7A74209D9341900F1FF3280F0DB
:10028000DA80A74240F2D7803444023840EA014085
:10029000E41B00211DB1DC400023C5E90043BDE89B
:1002A000F0878B4206D90DB1C5E90001002108464F
:1002B000BDE8F087B3FA83F1002948D1BB4202D3ED
:1002C000824200F20781841A67EB03020120944600
:1002D000002DE4D0C5E9004CE1E7002A00F092804F
:1002E000B2FA82F3002B40F0A8808A1A4FEA164E29
:1002F0001FFA86FC0121200CB2FBFEF70EFB172231
:1003000040EA02420CFB07F0904207D9B21807F10D
:10031000FF3802D2904200F2E2804746121AA4B29D
:10032000B2FBFEF00EFB102244EA02440CFB00FC80
:10033000A44507D9341900F1FF3202D2A44500F2D6
:10034000CB801046A4EB0C0440EA0740A2E7C1F1C1
:1003500020068B4022FA06FC4CEA030C07FA01F453
:1003600020FA06F3F7404FEA1C49234300FA01F84C
:100370001FFA8CFEB7FBF9F01C0C09FB107744EA5E
:10038000074400FB0EF7A74202FA01F20AD91CEB60
:10039000040400F1FF3A80F09B80A74240F298806D
:1003A00002386444E41B9FB2B4FBF9F309FB134425
:1003B00047EA044403FB0EFEA64509D91CEB0404DE
:1003C00003F1FF3780F08280A6457FD9023B644469
:1003D00043EA0040A4EB0E04A0FB02E7BC427346D4
:1003E000B94663D360D05DB1B8EB030264EB090496
:1003F00004FA06F622FA01F31E43CC40C5E9006474
:1004000000214CE76208480842EAC1710B0C43EA3C
:1004100000438AB242EA0342B3FBF6F1E407B44672
:100420003746B6461F23B0FBF6F0D21B41EA004127
:1004300061E7614614E7104628E7C3F1200120FA7E
:1004400001F29E4027FA01F19F403A434FEA164ECF
:100450001FFA86FCB1FBFEF70EFB1710110C41EAE8
:10046000004107FB0CF8884504FA03F43AD97118E7
:1004700007F1FF3001D288451FD8A1EB0801B1FB7D
:10048000FEF808FB0CF70EFB181192B242EA01428B
:10049000BA422FD2B21808F1FF31C6D2BA42C4D242
:1004A000A8F102013244C0E7F0459CD2BEEB020342
:1004B00067EB0C070138B94695E7A6EB08084144FD
:1004C000B81EB1FBFEF808FB0CF7DCE73B467FE704
:1004D000504667E70846FBE63444023832E7023FFD
:1004E00032441BE7A1EB08013846B1FBFEF808FBDC
:1004F0000CF7C8E7414698E7704700BF034613F87A
:10050000012B002AFBD1181A0138704700000000A7
:1005100001F0FF01102A2BDB10F0070F08D010F8B4
:10052000013B013A8B422DD010F0070F42B3F6D1B8
:10053000F0B441EA012141EA014122F007047FF0D1
:1005400000070023F0E80256083C85EA010586EA28
:10055000010685FA47F5A3FA87F586FA47F6A5FA64
:1005600087F68EB9EED1F0BC01F0FF0102F0070270
:1005700032B110F8013B013A83EA010313B1F8D11B
:100580000020704701387047002D06BF35460338FC
:10059000073815F0010F07D1013015F4807F02BF35
:1005A000013015F4C03F0130F0BC0138704700BF86
:1005B00080B400AF064BD3F88830054A43F470038B
:1005C000C2F8883000BFBD465DF8047B704700BFAD
:1005D00000ED00E080B582B000AF78607B68002B52
:1005E00001D1012341E07B6893F83D30DBB2002B61
:1005F00006D17B68002283F83C20786800F039F847
:100600007B68022283F83D207B681A687B6804338C
:100610001946104600F0C0F97B68012283F8462095
:100620007B68012283F83E207B68012283F83F200B
:100630007B68012283F840207B68012283F84120F7
:100640007B68012283F842207B68012283F84320E3
:100650007B68012283F844207B68012283F84520CF
:100660007B68012283F83D20002318460837BD46E9
:1006700080BD80B483B000AF786000BF0C37BD464A
:100680005DF8047B7047000080B485B000AF7860EF
:100690007B6893F83D30DBB2012B01D001234EE0A3
:1006A0007B68022283F83D207B681B68DA687B68E0
:1006B0001B6842F00102DA607B681B68234A9342A0
:1006C00022D07B681B68B3F1804F1DD07B681B680C
:1006D0001F4A934218D07B681B681E4A934213D06E
:1006E0007B681B681C4A93420ED07B681B681B4AC0
:1006F000934209D07B681B68194A934204D07B68F7
:100700001B68184A934211D17B681B689B6803F0F1
:100710000703FB60FB68062B10D07B681B681A6818
:100720007B681B6842F001021A6007E07B681B6867
:100730001A687B681B6842F001021A6000231846A1
:100740001437BD465DF8047B704700BF00000140D0
:100750000004004000080040000C0040000401407C
:10076000004001400018004080B584B000AF7860C0
:100770007B681B68DB68FB607B681B681B69BB6070
:10078000BB6803F00203002B20D0FB6803F00203D8
:10079000002B1BD07B681B686FF002021A617B681C
:1007A00001221A777B681B689B6903F00303002B07
:1007B00003D0786800F0D2F805E0786800F0C4F85B
:1007C000786800F0D5F87B6800221A77BB6803F0E0
:1007D0000403002B20D0FB6803F00403002B1BD084
:1007E0007B681B686FF004021A617B6802221A772B
:1007F0007B681B689B6903F44073002B03D0786807
:1008000000F0ACF805E0786800F09EF8786800F039
:10081000AFF87B6800221A77BB6803F00803002B4F
:1008200020D0FB6803F00803002B1BD07B681B68FB
:100830006FF008021A617B6804221A777B681B68D4
:10084000DB6903F00303002B03D0786800F086F81F
:1008500005E0786800F078F8786800F089F87B683F
:1008600000221A77BB6803F01003002B20D0FB682E
:1008700003F01003002B1BD07B681B686FF0100285
:100880001A617B6808221A777B681B68DB6903F4AE
:100890004073002B03D0786800F060F805E07868BA
:1008A00000F052F8786800F063F87B6800221A774D
:1008B000BB6803F00103002B0CD0FB6803F00103BD
:1008C000002B07D07B681B686FF001021A61786803
:1008D00004F07EFFBB6803F08003002B0CD0FB68A4
:1008E00003F08003002B07D07B681B686FF0800249
:1008F0001A61786800F000F9BB6803F04003002B30
:100900000CD0FB6803F04003002B07D07B681B680A
:100910006FF040021A61786800F034F8BB6803F0A9
:100920002003002B0CD0FB6803F02003002B07D022
:100930007B681B686FF020021A61786800F0D2F8BB
:1009400000BF1037BD4680BD80B483B000AF786073
:1009500000BF0C37BD465DF8047B704780B483B0A0
:1009600000AF786000BF0C37BD465DF8047B704770
:1009700080B483B000AF786000BF0C37BD465DF82F
:10098000047B704780B483B000AF786000BF0C3741
:10099000BD465DF8047B704780B485B000AF7860D9
:1009A00039607B681B68FB607B68434A934213D0C5
:1009B0007B68B3F1804F0FD07B68404A93420BD0E5
:1009C0007B683F4A934207D07B683E4A934203D0FC
:1009D0007B683D4A934208D1FB6823F07003FB60BB
:1009E0003B685B68FA681343FB607B68324A93425A
:1009F0002BD07B68B3F1804F27D07B682F4A93427E
:100A000023D07B682E4A93421FD07B682D4A9342A5
:100A10001BD07B682C4A934217D07B682B4A9342A9
:100A200013D07B682A4A93420FD07B68294A9342AD
:100A30000BD07B68284A934207D07B68274A9342B1
:100A400003D07B68264A934208D1FB6823F44073A5
:100A5000FB603B68DB68FA681343FB60FB6823F0CC
:100A600080023B685B691343FB603B689A687B6864
:100A7000DA623B681A687B689A627B680E4A934226
:100A800003D07B68104A934203D13B681A697B68A4
:100A90001A637B681B6843F004027B681A607B68FA
:100AA00001225A617B68FA681A6000BF1437BD469C
:100AB0005DF8047B704700BF000001400004004067
:100AC00000080040000C00400004014000400140CC
:100AD000004401400048014000180040001C004054
:100AE0000020004080B483B000AF786000BF0C37B6
:100AF000BD465DF8047B704780B483B000AF78607A
:100B000000BF0C37BD465DF8047B704780B586B0EA
:100B100000AF78607B68002B01D1012367E27B681E
:100B20001B6803F00103002B75D0884B9B6803F012
:100B30000C03042B0CD0854B9B6803F00C03082B93
:100B400012D1824B5B6803F48003B3F5800F0BD1A5
:100B50007E4B1B6803F40033002B5BD07B685B6823
:100B6000002B57D1012342E27B685B68B3F5803FDD
:100B700006D1764B1B68754A43F4803313601DE041
:100B80007B685B68B3F5A02F0CD1704B1B686F4A74
:100B900043F4802313606D4B1B686C4A43F480332D
:100BA00013600BE0694B1B68684A23F480331360C1
:100BB000664B1B68654A23F4802313607B685B687F
:100BC000002B13D001F052FE386108E001F04EFE18
:100BD00002463B69D31A642B01D9032307E25B4B1E
:100BE0001B6803F40033002BF0D014E001F03EFE4C
:100BF000386108E001F03AFE02463B69D31A642BE3
:100C000001D90323F3E1514B1B6803F40033002B9C
:100C1000F0D100E000BF7B681B6803F00203002BEB
:100C200063D04A4B9B6803F00C03002B0BD0474B5F
:100C30009B6803F00C03082B1CD1444B5B6803F446
:100C40008003002B16D1414B1B6803F00203002BDD
:100C500005D07B68DB68012B01D00123C7E13B4B4A
:100C60001B6823F0F8027B681B69DB0037491343DC
:100C70000B603AE07B68DB68002B20D0344B01220C
:100C80001A6001F0F3FD386108E001F0EFFD024663
:100C90003B69D31A022B01D90323A8E12B4B1B6814
:100CA00003F00203002BF0D0284B1B6823F0F8025E
:100CB0007B681B69DB00254913430B6015E0244B5F
:100CC00000221A6001F0D2FD386108E001F0CEFD8B
:100CD00002463B69D31A022B01D9032387E11B4B40
:100CE0001B6803F00203002BF0D17B681B6803F044
:100CF0000803002B36D07B685B69002B16D0154BA0
:100D000001221A6001F0B2FD386108E001F0AEFD89
:100D100002463B69D31A022B01D9032367E10B4B2F
:100D20005B6F03F00203002BF0D01BE0094B0022A5
:100D30001A6001F09BFD38610EE001F097FD02465C
:100D40003B69D31A022B07D9032350E10038024034
:100D500000004742800E4742884B5B6F03F002035E
:100D6000002BEAD17B681B6803F00403002B00F022
:100D700097800023FB75814B1B6C03F08053002B85
:100D80000FD10023BB607D4B1B6C7C4A43F080532A
:100D900013647A4B1B6C03F08053BB60BB68012368
:100DA000FB75774B1B6803F48073002B18D1744BD1
:100DB0001B68734A43F48073136001F057FD386178
:100DC00008E001F053FD02463B69D31A022B01D91A
:100DD00003230CE16A4B1B6803F48073002BF0D0F3
:100DE0007B689B68012B06D1644B1B6F634A43F001
:100DF000010313671CE07B689B68052B0CD15F4BDC
:100E00001B6F5E4A43F0040313675C4B1B6F5B4A26
:100E100043F0010313670BE0584B1B6F574A23F055
:100E200001031367554B1B6F544A23F004031367E8
:100E30007B689B68002B15D001F018FD38610AE033
:100E400001F014FD02463B69D31A41F28832934205
:100E500001D90323CBE0494B1B6F03F00203002BA6
:100E6000EED014E001F002FD38610AE001F0FEFC72
:100E700002463B69D31A41F28832934201D90323D7
:100E8000B5E03E4B1B6F03F00203002BEED1FB7D60
:100E9000012B05D1394B1B6C384A23F08053136466
:100EA0007B689B69002B00F0A180344B9B6803F0AA
:100EB0000C03082B5CD07B689B69022B41D1314B22
:100EC00000221A6001F0D2FC386108E001F0CEFC8B
:100ED00002463B69D31A022B01D9032387E0274B33
:100EE0001B6803F00073002BF0D17B68DA697B6824
:100EF0001B6A1A437B685B6A9B011A437B689B6A87
:100F00005B08013B1B041A437B68DB6A1B061B4919
:100F100013434B601B4B01221A6001F0A7FC3861A0
:100F200008E001F0A3FC02463B69D31A022B01D969
:100F300003235CE0114B1B6803F00073002BF0D01F
:100F400054E0104B00221A6001F090FC386108E078
:100F500001F08CFC02463B69D31A022B01D9032312
:100F600045E0064B1B6803F00073002BF0D13DE019
:100F70007B689B69012B07D1012338E000380240D0
:100F800000700040600047421B4B5B68FB607B6861
:100F90009B69012B28D0FB6803F480027B68DB6926
:100FA0009A4221D1FB6803F03F027B681B6A9A4298
:100FB0001AD1FA6847F6C07313407A68526A9201F0
:100FC000934211D1FB6803F440327B689B6A5B0853
:100FD000013B1B049A4207D1FB6803F070627B68F7
:100FE000DB6A1B069A4201D0012300E00023184669
:100FF0001837BD4680BD00BF0038024080B584B0C0
:1010000000AF786039607B68002B01D10123CCE010
:10101000684B1B6803F007033A689A420CD9654B8A
:101020003A68D2B21A70634B1B6803F007033A6840
:101030009A4201D00123B8E07B681B6803F00203E9
:10104000002B20D07B681B6803F00403002B05D025
:10105000594B9B68584A43F4E05393607B681B6884
:1010600003F00803002B05D0534B9B68524A43F40E
:1010700060439360504B9B6823F0F0027B689B6851
:101080004D4913438B607B681B6803F00103002B01
:1010900044D07B685B68012B07D1474B1B6803F486
:1010A0000033002B19D101237FE07B685B68022BA2
:1010B00003D07B685B68032B07D13F4B1B6803F0B1
:1010C0000073002B09D101236FE03B4B1B6803F039
:1010D0000203002B01D1012367E0374B9B6823F00B
:1010E00003027B685B68344913438B6001F0BEFBED
:1010F000F8600AE001F0BAFB0246FB68D31A41F23D
:101100008832934201D903234FE02B4B9B6803F0B5
:101110000C027B685B689B009A42EBD1254B1B68F5
:1011200003F007033A689A420CD2224B3A68D2B2D3
:101130001A70204B1B6803F007033A689A4201D0EB
:10114000012332E07B681B6803F00403002B08D006
:10115000194B9B6823F4E0527B68DB681649134304
:101160008B607B681B6803F00803002B09D0124BCF
:101170009B6823F460427B681B69DB000E491343C4
:101180008B6000F021F802460B4B9B681B0903F0B3
:101190000F030A49CB5C22FA03F3094A1360094B97
:1011A0001B68184605F0C6FC002318461037BD46DC
:1011B00080BD00BF003C024000380240C89A0108D0
:1011C00000000020240000202DE9B04F94B000AFB3
:1011D00000237B640023FB6400233B640023BB6487
:1011E000794B9B6803F00C03082B0DD0082B00F201
:1011F000E180002B02D0042B03D0DBE0734BBB64F7
:10120000DBE0734BBB64D8E06F4B5B6803F03F03DC
:101210007B646D4B5B6803F48003002B63D06A4BE7
:101220005B689B090022BB63FA63BB6BC3F30803D3
:101230003B6300237B63D7E90C4522462B464FF0E6
:1012400000004FF00001590141EAD261500102460D
:101250000B462146511A3961294663EB01037B6134
:101260004FF000024FF00003D7E904AB59468B0161
:10127000514643EA916351468A015146B2EB010857
:10128000594663EB01094FF000024FF000034FEAAB
:10129000C90343EA58734FEAC80290469946234669
:1012A00018EB0303BB602B4649EB0303FB604FF0D5
:1012B00000024FF00003D7E9024529464B022146C0
:1012C00043EAD15321464A02104619467B6C00225C
:1012D000BB62FA62D7E90A23FEF77AFF02460B46A1
:1012E0001346FB6458E0384B5B689B0900221846A4
:1012F0001146C0F308033B6200237B62D7E90889EB
:1013000042464B464FF000004FF00001590141EAC0
:10131000D261500102460B464146B2EB010A4946F2
:1013200063EB010B4FF000024FF000034FEA8B1309
:1013300043EA9A634FEA8A12B2EB0A0463EB0B05A5
:101340004FF000024FF00003EB0043EA5473E20059
:1013500014461D464346E3183B604B4645EB0303EA
:101360007B604FF000024FF00003D7E900452946AB
:101370008B02214643EA915321468A0210461946C0
:101380007B6C0022BB61FA61D7E90623FEF720FFE0
:1013900002460B461346FB640B4B5B681B0C03F0C9
:1013A000030301335B003B64FA6C3B6CB2FBF3F369
:1013B000BB6402E0054BBB6400BFBB6C18465037F2
:1013C000BD46BDE8B08F00BF003802400024F400E5
:1013D00000127A0080B400AF034B1B681846BD466C
:1013E0005DF8047B704700BF0000002080B500AFAF
:1013F000FFF7F0FF0246054B9B689B0A03F00703CB
:101400000349CB5C22FA03F3184680BD0038024042
:10141000D89A010880B500AFFFF7DCFF0246054B04
:101420009B685B0B03F007030349CB5C22FA03F3D1
:10143000184680BD00380240D89A010880B483B0B5
:1014400000AF786039607B680F221A60124B9B688E
:1014500003F003027B685A600F4B9B6803F0F002B5
:101460007B689A600C4B9B6803F4E0527B68DA60FF
:10147000094B9B68DB0803F4E0527B681A61074B59
:101480001B6803F007023B681A6000BF0C37BD46BB
:101490005DF8047B704700BF00380240003C02400A
:1014A00080B586B000AFF860B960C7E90023234B70
:1014B0001B7E012B01D102233BE0204B01221A7637
:1014C0004CF2503000F070F80346FB75FB7D002BAA
:1014D0002BD1FB68002B05D13B781946B86800F08A
:1014E0001BF916E0FB68012B05D13B881946B8684B
:1014F00000F0EEF80DE0FB68022B05D13B681946C1
:10150000B86800F0C3F804E0D7E90023B86800F039
:101510008BF84CF2503000F047F80346FB75084B4F
:101520001B69074A23F001031361044B00221A765A
:10153000FB7D18461837BD4680BD00BF0400002063
:10154000003C024080B483B000AF0023FB710B4B22
:101550001B69002B0BDA094B094A5A60074B094AF1
:101560005A60064B1B69002B01DA0123FB71FB79E2
:1015700018460C37BD465DF8047B7047003C0240BE
:1015800023016745AB89EFCD80B400AF054B1B69E4
:10159000044A43F00043136100231846BD465DF83A
:1015A000047B7047003C024080B584B000AF786097
:1015B0000023FB601A4B0022DA6101F057F9F86052
:1015C00010E07B68B3F1FF3F0CD07B68002B07D0A5
:1015D00001F04CF90246FB68D31A7A689A4201D2AC
:1015E000032319E00F4BDB6803F48033002BE8D1B1
:1015F0000C4BDB6803F00103002B02D0094B0122E6
:10160000DA60084BDB6803F0F203002B03D000F034
:10161000A5F8012300E0002318461037BD4680BD21
:1016200004000020003C024080B485B000AFF860A8
:10163000C7E90023144B1B69134A23F44073136159
:10164000114B1B69104A43F4407313610E4B1B6925
:101650000D4A43F001031361FB683A681A60BFF357
:101660006F8F00BFD7E900014FF000024FF0000379
:101670000A000023F968043113460B6000BF1437D9
:10168000BD465DF8047B7047003C024080B483B0E7
:1016900000AF786039600D4B1B690C4A23F440732E
:1016A00013610A4B1B69094A43F400731361074B2A
:1016B0001B69064A43F0010313617B683A681A60AC
:1016C00000BF0C37BD465DF8047B7047003C02400C
:1016D00080B483B000AF78600B467B800D4B1B69F4
:1016E0000C4A23F4407313610A4B1B69094A43F403
:1016F00080731361074B1B69064A43F001031361B2
:101700007B687A881A8000BF0C37BD465DF8047B81
:10171000704700BF003C024080B483B000AF7860E7
:101720000B46FB700C4B1B690B4A23F4407313618F
:10173000094B094A1B691361074B1B69064A43F0B1
:10174000010313617B68FA781A7000BF0C37BD463D
:101750005DF8047B704700BF003C024080B400AFDE
:10176000274BDB6803F01003002B08D0254BDB6907
:1017700043F01003234AD361214B1022DA60204B3F
:10178000DB6803F02003002B08D01E4BDB6943F01D
:1017900008031C4AD3611A4B2022DA60184BDB681D
:1017A00003F04003002B08D0164BDB6943F0040321
:1017B000144AD361124B4022DA60114BDB6803F00C
:1017C0008003002B08D00F4BDB6943F002030D4A66
:1017D000D3610B4B8022DA60094BDB6803F0020314
:1017E000002B08D0074BDB6943F02003054AD36187
:1017F000034B0222DA6000BFBD465DF8047B7047F0
:10180000003C02400400002080B584B000AF786046
:1018100039600023BB60314B1B7E012B01D10223B9
:1018200058E02E4B01221A764CF25030FFF7BCFEE6
:101830000346FB73FB7B002B48D13B684FF0FF3224
:101840001A607B681B68012B15D17B681B69DAB2B3
:101850007B685B681946104600F044F84CF2503043
:10186000FFF7A2FE0346FB731D4B1B691C4A23F0C6
:101870000403136128E07B689B68BB601CE07B6805
:101880001B69DBB21946B86800F050F84CF25030D2
:10189000FFF78AFE0346FB73114B1B69104A23F0C6
:1018A0007A031361FB7B002B03D03B68BA681A6094
:1018B0000AE0BB680133BB607B68DA687B689B68C1
:1018C0001344BA689A42DAD300F078F8034B002246
:1018D0001A76FB7B18461037BD4680BD04000020F9
:1018E000003C024080B483B000AF03463960FB7116
:1018F0000D4B1B690C4A23F4407313610A4B1B699F
:10190000094A43F004031361074B1A69FB791B0270
:101910001343054A43F48033136100BF0C37BD46BF
:101920005DF8047B704700BF003C024080B485B086
:1019300000AF78600B46FB700023FB60FB78002B48
:1019400002D10023FB6010E0FB78012B03D14FF4A0
:101950008073FB6009E0FB78022B03D14FF4007326
:10196000FB6002E04FF44073FB60134B1B69124AAB
:1019700023F440731361104B1A690F49FB6813433A
:101980000B610D4B1B690C4A23F0780313610A4B62
:101990001A697B68DB001343074A43F002031361B3
:1019A000054B1B69044A43F48033136100BF1437AD
:1019B000BD465DF8047B7047003C024080B400AF38
:1019C000204B1B6803F40073002B17D01D4B1B68C2
:1019D0001C4A23F4007313601A4B1B68194A43F422
:1019E00000631360174B1B68164A23F400631360EF
:1019F000144B1B68134A43F400731360114B1B68AC
:101A000003F48063002B17D00E4B1B680D4A23F4A0
:101A1000806313600B4B1B680A4A43F480531360C6
:101A2000084B1B68074A23F480531360054B1B685F
:101A3000044A43F48063136000BFBD465DF8047B35
:101A4000704700BF003C024080B489B000AF7860AE
:101A5000396000237B6100233B610023BB610023CD
:101A6000FB616BE10122FB6902FA03F37B613B68D6
:101A70001B687A6913403B613A697B699A4240F07E
:101A80005A813B685B6803F00303012B05D03B6878
:101A90005B6803F00303022B30D17B689B68BB615A
:101AA000FB695B00032202FA03F3DB43BA691340CC
:101AB000BB613B68DA68FB695B0002FA03F3BA6951
:101AC0001343BB617B68BA699A607B685B68BB61E2
:101AD0000122FB6902FA03F3DB43BA691340BB61DD
:101AE0003B685B681B0903F00102FB6902FA03F320
:101AF000BA691343BB617B68BA695A603B685B682B
:101B000003F00303032B17D07B68DB68BB61FB6921
:101B10005B00032202FA03F3DB43BA691340BB61A3
:101B20003B689A68FB695B0002FA03F3BA691343E6
:101B3000BB617B68BA69DA603B685B6803F00303EA
:101B4000022B23D1FB69DA087B68083253F8223074
:101B5000BB61FB6903F007039B000F2202FA03F34A
:101B6000DB43BA691340BB613B681A69FB6903F048
:101B700007039B0002FA03F3BA691343BB61FB69D5
:101B8000DA087B680832B96943F822107B681B6861
:101B9000BB61FB695B00032202FA03F3DB43BA6912
:101BA0001340BB613B685B6803F00302FB695B00A9
:101BB00002FA03F3BA691343BB617B68BA691A601E
:101BC0003B685B6803F44033002B00F0B4800023D3
:101BD000FB60604B5B6C5F4A43F4804353645D4B36
:101BE0005B6C03F48043FB60FB685B4AFB699B080A
:101BF000023352F82330BB61FB6903F003039B00FF
:101C00000F2202FA03F3DB43BA691340BB617B681E
:101C1000524A93422BD07B68514A934225D07B682D
:101C2000504A93421FD07B684F4A934219D07B6839
:101C30004E4A934213D07B684D4A93420DD07B6845
:101C40004C4A934207D07B684B4A934201D1072309
:101C50000EE008230CE006230AE0052308E0042335
:101C600006E0032304E0022302E0012300E0002356
:101C7000FA6902F0030292009340BA691343BB6110
:101C80003549FB699B080233BA6941F823203B4B75
:101C90009B68BB613B69DB43BA691340BB613B682E
:101CA0005B6803F48013002B03D0BA693B691343CC
:101CB000BB61324ABB699360304BDB68BB613B69F7
:101CC000DB43BA691340BB613B685B6803F40013F4
:101CD000002B03D0BA693B691343BB61274ABB6938
:101CE000D360264B5B68BB613B69DB43BA69134039
:101CF000BB613B685B6803F40033002B03D0BA6917
:101D00003B691343BB611D4ABB6953601B4B1B6896
:101D1000BB613B69DB43BA691340BB613B685B68ED
:101D200003F48033002B03D0BA693B691343BB61D2
:101D3000124ABB691360FB690133FB61FB690F2B1E
:101D40007FF690AE00BF00BF2437BD465DF8047B30
:101D5000704700BF003802400038014000000240D8
:101D60000004024000080240000C02400010024043
:101D70000014024000180240001C0240003C0140D8
:101D800080B483B000AF78600B467B8013467B70D5
:101D90007B78002B03D07A887B689A6103E07B888C
:101DA0001A047B689A6100BF0C37BD465DF8047B5E
:101DB000704780B485B000AF78600B467B807B684D
:101DC0005B69FB607A88FB6813401A04FB68D9439F
:101DD0007B880B401A437B689A6100BF1437BD466D
:101DE0005DF8047B7047000080B586B000AF786076
:101DF00000237B6100F03AFD38617B68002B01D144
:101E0000012399E07B68022283F835207B68002259
:101E100083F834207B681B681A687B681B6822F093
:101E200001021A600FE000F021FD02463B69D31A5F
:101E3000052B08D97B6820225A657B68032283F82A
:101E40003520032378E07B681B681B6803F00103DF
:101E5000002BE8D17B681B681B687B617A69384B73
:101E600013407B617B685A687B689B681A437B6878
:101E7000DB681A437B681B691A437B685B691A43FA
:101E80007B689B691A437B68DB691A437B681B6A22
:101E900013437A6913437B617B685B6A042B07D128
:101EA0007B68DA6A7B681B6B13437A6913437B6137
:101EB0007B681B687A691A607B681B685B697B6159
:101EC0007B6923F007037B617B685B6A7A69134354
:101ED0007B617B685B6A042B17D17B689B6A7A699C
:101EE00013437B617B68DB6A002B0ED0786800F0BF
:101EF0000DFB0346002B08D07B6840225A657B68A7
:101F0000012283F83520012316E07B681B687A697B
:101F10005A61786800F0C4FA0346FB607B68DB6DA9
:101F20003F229A40FB689A607B6800225A657B6872
:101F3000012283F83520002318461837BD4680BD9E
:101F40003F8010F080B586B000AFF860B9607A606D
:101F50003B600023FB75FB689B6D3B61FB6893F85E
:101F60003430012B01D1022340E0FB68012283F8C9
:101F70003420FB6893F83530DBB2012B2FD1FB689E
:101F8000022283F83520FB6800225A653B687A6894
:101F9000B968F86800F056FAFB68DB6D3F229A409A
:101FA0003B699A60FB681B681A68FB681B6842F013
:101FB00016021A60FB681B6C002B07D0FB681B68BD
:101FC0001A68FB681B6842F008021A60FB681B680D
:101FD0001A68FB681B6842F001021A6005E0FB68A2
:101FE000002283F834200223FB75FB7D1846183746
:101FF000BD4680BD80B584B000AF78607B689B6DC6
:10200000FB6000F033FCB8607B6893F83530DBB2DE
:10201000022B08D07B6880225A657B68002283F8F7
:102020003420012352E07B681B681A687B681B68B8
:1020300022F016021A607B681B685A697B681B686D
:1020400022F080025A617B681B6C002B03D17B68F5
:102050009B6C002B07D07B681B681A687B681B6829
:1020600022F008021A607B681B681A687B681B688C
:1020700022F001021A6013E000F0F8FB0246BB6890
:10208000D31A052B0CD97B6820225A657B68032262
:1020900083F835207B68002283F83420032315E081
:1020A0007B681B681B6803F00103002BE4D17B688D
:1020B000DB6D3F229A40FB689A607B68012283F8BF
:1020C00035207B68002283F834200023184610371F
:1020D000BD4680BD80B483B000AF78607B6893F864
:1020E0003530DBB2022B04D07B6880225A65012395
:1020F0000CE07B68052283F835207B681B681A6832
:102100007B681B6822F001021A60002318460C3716
:10211000BD465DF8047B704780B586B000AF78603F
:102120000023BB608E4B1B688E4AA2FB03239B0AD5
:102130007B617B689B6D3B613B691B68FB607B68D7
:10214000DB6D08229A40FB681340002B1AD07B6895
:102150001B681B6803F00403002B13D07B681B680B
:102160001A687B681B6822F004021A607B68DB6DCA
:1021700008229A403B699A607B685B6D43F00102DC
:102180007B685A657B68DB6D01229A40FB681340CF
:10219000002B12D07B681B685B6903F08003002B67
:1021A0000BD07B68DB6D01229A403B699A607B68AB
:1021B0005B6D43F002027B685A657B68DB6D04222D
:1021C0009A40FB681340002B12D07B681B681B6889
:1021D00003F00203002B0BD07B68DB6D04229A40D6
:1021E0003B699A607B685B6D43F004027B685A65CB
:1021F0007B68DB6D10229A40FB681340002B43D0B4
:102200007B681B681B6803F00803002B3CD07B68CD
:10221000DB6D10229A403B699A607B681B681B68E3
:1022200003F48023002B18D07B681B681B6803F421
:102230000023002B08D17B681B6C002B24D07B680B
:102240001B6C786898471FE07B689B6C002B1BD049
:102250007B689B6C7868984716E07B681B681B68F6
:1022600003F48073002B07D17B681B681A687B68B6
:102270001B6822F008021A607B681B6C002B03D0DD
:102280007B681B6C786898477B68DB6D20229A40DE
:10229000FB681340002B00F08F807B681B681B6875
:1022A00003F01003002B00F087807B68DB6D202299
:1022B0009A403B699A607B6893F83530DBB2052B16
:1022C00036D17B681B681A687B681B6822F016028F
:1022D0001A607B681B685A697B681B6822F0800261
:1022E0005A617B681B6C002B03D17B689B6C002BB5
:1022F00007D07B681B681A687B681B6822F008029D
:102300001A607B68DB6D3F229A403B699A607B686C
:10231000012283F835207B68002283F834207B6813
:102320001B6D002B7ED07B681B6D7868984779E029
:102330007B681B681B6803F48023002B1DD07B681F
:102340001B681B6803F40023002B0DD17B685B6CBA
:10235000002B31D07B685B6C786898472CE000BF1D
:1023600000000020B5814E1B7B68DB6B002B23D067
:102370007B68DB6B786898471EE07B681B681B688E
:1023800003F48073002B0FD17B681B681A687B688D
:102390001B6822F010021A607B68012283F8352046
:1023A0007B68002283F834207B68DB6B002B03D032
:1023B0007B68DB6B786898477B685B6D002B32D05D
:1023C0007B685B6D03F00103002B22D07B68052244
:1023D00083F835207B681B681A687B681B6822F0CD
:1023E00001021A60BB680133BB607A699A4207D365
:1023F0007B681B681B6803F00103002BF2D100E02F
:1024000000BF7B68012283F835207B68002283F8B7
:1024100034207B68DB6C002B05D07B68DB6C786834
:10242000984700E000BF1837BD4680BD80B483B038
:1024300000AF78607B685B6D18460C37BD465DF871
:10244000047B704780B485B000AFF860B9607A60F3
:102450003B60FB681B681A68FB681B6822F48022DB
:102460001A60FB681B683A685A60FB689B68402BDF
:1024700008D1FB681B687A689A60FB681B68BA68B9
:10248000DA6007E0FB681B68BA689A60FB681B6843
:102490007A68DA6000BF1437BD465DF8047B704788
:1024A00080B485B000AF78607B681B68DBB2103BFE
:1024B000144AA2FB03231B09FB60134AFB68134465
:1024C0001B781A467B68DA65FB68032B09D97B68A1
:1024D0001B6823F47F7323F003031A1D7B689A653E
:1024E00007E07B681B6823F47F7323F003037A689B
:1024F00093657B689B6D18461437BD465DF8047B79
:10250000704700BFABAAAAAAE09A010880B485B0C0
:1025100000AF78600023FB737B689B6ABB607B68BD
:102520009B69002B1FD1BB68032B56D801A252F820
:1025300023F000BF4525010857250108452501085E
:10254000DB2501087B68DB6A03F08073002B46D033
:102550000123FB7343E07B68DB6AB3F1C07F40D1AA
:102560000123FB733DE07B689B69B3F5005F21D1DC
:10257000BB68032B37D801A252F823F08D25010840
:10258000932501088D250108A52501080123FB736A
:1025900030E07B68DB6A03F08073002B25D00123D9
:1025A000FB7322E07B68DB6AB3F1C07F1FD101239C
:1025B000FB731CE0BB68022B03D9BB68032B03D061
:1025C00018E00123FB7315E07B68DB6A03F080737E
:1025D000002B0ED00123FB730BE000BF0AE000BF0D
:1025E00008E000BF06E000BF04E000BF02E000BF5B
:1025F00000E000BFFB7B18461437BD465DF8047B46
:10260000704700BF80B485B000AF78607B6803F08E
:102610000703FB600C4BDB68BB60BA684FF6FF0337
:102620001340BB60FB681A02BB68134343F0BF63EF
:1026300043F40033BB60044ABB68D36000BF143767
:10264000BD465DF8047B704700ED00E080B400AF4C
:10265000044BDB681B0A03F007031846BD465DF810
:10266000047B704700ED00E080B483B000AF034608
:10267000FB7197F90730002B0BDBFB7903F01F028E
:10268000074997F907305B09012000FA02F241F887
:10269000232000BF0C37BD465DF8047B704700BFA8
:1026A00000E100E080B483B000AF03463960FB7105
:1026B00097F90730002B0ADB3B68DAB20C4997F92F
:1026C00007301201D2B20B4483F800230AE03B68C2
:1026D000DAB20849FB7903F00F03043B1201D2B2CE
:1026E0000B441A7600BF0C37BD465DF8047B70477B
:1026F00000E100E000ED00E080B489B000AFF860D8
:10270000B9607A60FB6803F00703FB61FB69C3F102
:102710000703042B28BF0423BB61FB690433062B8A
:1027200002D9FB69033B00E000237B614FF0FF32DD
:10273000BB6902FA03F3DA43BB681A407B699A402B
:102740004FF0FF317B6901FA03F3D9437B680B40FB
:10275000134318462437BD465DF8047B70470000DC
:1027600080B400AFBFF34F8F00BF064BDB6803F4AC
:10277000E0620449044B1343CB60BFF34F8F00BFAB
:1027800000BFFDE700ED00E00400FA0580B582B06F
:1027900000AF78607868FFF735FF00BF0837BD46A7
:1027A00080BD80B586B000AF0346B9607A60FB7328
:1027B00000237B61FFF74AFF78617A68B96878691E
:1027C000FFF79AFF024697F90F3011461846FFF7B8
:1027D00069FF00BF1837BD4680BD80B582B000AF2D
:1027E0000346FB7197F907301846FFF73DFF00BF1E
:1027F0000837BD4680BD80B500AFFFF7B1FF0000D0
:1028000080B500AF0E4B1B680D4A43F40073136094
:102810000B4B1B680A4A43F480631360084B1B6828
:10282000074A43F4807313600320FFF7AFFF0F20C4
:1028300004F080F904F052F90023184680BD00BF6F
:10284000003C024080B400AF064B1B781A46064B92
:102850001B681344044A136000BFBD465DF8047B47
:10286000704700BF28000020A800002080B400AFFF
:10287000034B1B681846BD465DF8047B704700BFDC
:10288000A800002080B584B000AF7860FFF7EEFFAD
:10289000B8607B68FB60FB68B3F1FF3F05D00A4B73
:1028A0001B781A46FB681344FB6000BFFFF7DEFF8E
:1028B0000246BB68D31AFA689A42F7D800BF00BF35
:1028C0001037BD4680BD00BF2800002080B582B013
:1028D00000AF78607B68002B01D1012342E07B6868
:1028E00093F84130DBB2002B06D17B68002283F8DD
:1028F0004020786803F0B4FF7B68242283F84120ED
:102900007B681B68DA687B681B6822F40052DA6017
:10291000786801F0DBF87B681B681A697B681B68C4
:1029200022F490421A617B681B685A697B681B68B5
:1029300022F02A025A617B681B68DA687B681B6890
:1029400042F40052DA607B6800225A647B682022DD
:1029500083F841207B68202283F842207B68002294
:102960005A63002318460837BD4680BD80B58AB03B
:1029700002AFF860B9603B601346FB8000237B61C7
:10298000FB6893F84130DBB2202B75D1BB68002B7C
:1029900002D0FB88002B01D101236EE0FB680022EE
:1029A0005A64FB68212283F84120FFF75FFF7861BA
:1029B000FB68FA889A84FB68FA88DA84FB689B686B
:1029C000B3F5805F08D1FB681B69002B04D100239D
:1029D000FB61BB68BB6103E0BB68FB610023BB61BB
:1029E0002EE03B6800937B6900228021F86800F0AC
:1029F000ABFD0346002B05D0FB68202283F8412065
:102A000003233AE0FB69002B0BD1BB691B881A46F4
:102A1000FB681B68C2F308025A60BB690233BB61E2
:102A200007E0FB691A78FB681B685A60FB69013391
:102A3000FB61FB68DB8C9BB2013B9AB2FB68DA84DA
:102A4000FB68DB8C9BB2002BCBD13B6800937B698E
:102A500000224021F86800F077FD0346002B05D0E6
:102A6000FB68202283F84120032306E0FB68202234
:102A700083F84120002300E0022318462037BD469A
:102A800080BD80B58AB002AFF860B9603B60134684
:102A9000FB8000237B61FB6893F84230DBB2202B84
:102AA00040F08180BB68002B02D0FB88002B01D155
:102AB000012379E0FB6800225A64FB68222283F834
:102AC0004220FB6800221A63FFF7D0FE7861FB68A2
:102AD000FA889A85FB68FA88DA85FB689B68B3F503
:102AE000805F08D1FB681B69002B04D10023FB61C8
:102AF000BB68BB6103E0BB68FB610023BB6147E0CF
:102B00003B6800937B6900222021F86800F01CFDDF
:102B10000346002B05D0FB68202283F842200323C4
:102B200042E0FB69002B0CD1FB681B685B689BB221
:102B3000C3F308039AB2BB691A80BB690233BB6155
:102B40001FE0FB689B68B3F5805F07D0FB689B685C
:102B5000002B0AD1FB681B69002B06D1FB681B68A0
:102B60005B68DAB2FB691A7008E0FB681B685B6897
:102B7000DBB203F07F03DAB2FB691A70FB69013341
:102B8000FB61FB68DB8D9BB2013B9AB2FB68DA8587
:102B9000FB68DB8D9BB2002BB2D1FB68202283F84F
:102BA0004220002300E0022318462037BD4680BDA6
:102BB00080B58CB000AFF860B9601346FB80FB684D
:102BC00093F84230DBB2202B46D1BB68002B02D0F9
:102BD000FB88002B01D101233FE0FB6801221A632F
:102BE000FB6800225A63FB881A46B968F86800F04F
:102BF00005FD034687F82F30FB681B6B012B25D1A1
:102C000000233B61FB681B681B683B61FB681B681A
:102C10005B683B613B69FB681B680C33BB61BB694C
:102C200053E8003F7B617B6943F01003BB62FB68A4
:102C30001B680C33BA6A7A623B62396A7A6A41E885
:102C40000023FB61FB69002BE5D102E0012387F83B
:102C50002F3097F82F3000E0022318463037BD465A
:102C600080BD80B59AB000AF78607B681B680C337C
:102C7000BB64BB6C53E8003F7B647B6C23F49073B4
:102C80007B667B681B680C337A6E7A653B65396DB1
:102C90007A6D41E80023FB64FB6C002BE5D17B6877
:102CA0001B6814337B637B6B53E8003F3B633B6BD8
:102CB00023F001033B667B681B6814333A6E3A6469
:102CC000FB63F96B3A6C41E80023BB63BB6B002BE1
:102CD000E5D17B681B6B012B19D17B681B680C331A
:102CE0003B623B6A53E8003FFB61FB6923F0100342
:102CF000FB657B681B680C33FA6DFA62BB62B96ACC
:102D0000FA6A41E800237B627B6A002BE5D17B688D
:102D10001B685B6903F04003402B36D17B681B685E
:102D20001433FB60FB6853E8003FBB60BB6823F0D3
:102D30004003BB657B681B681433BA6DBA617B6165
:102D40007969BA6941E800233B613B69002BE5D111
:102D50007B68DB6B002B18D07B68DB6B00221A656D
:102D60007B68DB6B1846FFF745F90346002B0CD058
:102D70007B68DB6B1846FFF759FB0346202B04D119
:102D80007B6810225A6403230AE07B680022DA85FC
:102D90007B68202283F842207B6800221A6300238C
:102DA00018466837BD4680BD80B5BAB000AF7860C0
:102DB0007B681B681B68C7F8E4307B681B68DB68AE
:102DC000C7F8E0307B681B685B69C7F8DC3000231C
:102DD000C7F8D8300023C7F8D430D7F8E43003F070
:102DE0000F03C7F8D830D7F8D830002B0FD1D7F859
:102DF000E43003F02003002B09D0D7F8E03003F0D3
:102E00002003002B03D0786800F0A2FD73E2D7F80E
:102E1000D830002B00F0DE80D7F8DC3003F001035F
:102E2000002B06D1D7F8E03003F49073002B00F0AC
:102E3000D180D7F8E43003F00103002B0BD0D7F892
:102E4000E03003F48073002B05D07B685B6C43F0AB
:102E500001027B685A64D7F8E43003F00403002BC6
:102E60000BD0D7F8DC3003F00103002B05D07B68D2
:102E70005B6C43F002027B685A64D7F8E43003F0DD
:102E80000203002B0BD0D7F8DC3003F00103002B3A
:102E900005D07B685B6C43F004027B685A64D7F80A
:102EA000E43003F00803002B11D0D7F8E03003F032
:102EB0002003002B05D1D7F8DC3003F00103002BF1
:102EC00005D07B685B6C43F008027B685A647B68C2
:102ED0005B6C002B00F00A82D7F8E43003F020038B
:102EE000002B08D0D7F8E03003F02003002B02D0ED
:102EF000786800F02DFD7B681B685B6903F0400378
:102F0000402B0CBF01230023DBB2C7F8D4307B6811
:102F10005B6C03F00803002B03D1D7F8D430002BEF
:102F20004FD0786800F038FC7B681B685B6903F061
:102F30004003402B41D17B681B681433C7F89C3099
:102F4000D7F89C3053E8003FC7F89830D7F898304E
:102F500023F04003C7F8D0307B681B681433D7F8E0
:102F6000D020C7F8A820C7F8A430D7F8A410D7F805
:102F7000A82041E80023C7F8A030D7F8A030002BE4
:102F8000D9D17B68DB6B002B13D07B68DB6B8A4A63
:102F90001A657B68DB6B1846FFF79CF80346002B2D
:102FA00016D07B68DB6B1B6D7A68D26B1046984736
:102FB0000EE0786800F0C0F90AE0786800F0BCF92B
:102FC00006E0786800F0B8F97B6800225A648DE169
:102FD00000BF8BE17B681B6B012B40F06781D7F84A
:102FE000E43003F01003002B00F06081D7F8E030EC
:102FF00003F01003002B00F059810023BB607B68B5
:103000001B681B68BB607B681B685B68BB60BB6838
:103010007B681B685B6903F04003402B40F0CE8067
:103020007B68DB6B1B685B68A7F8BE30B7F8BE3007
:10303000002B00F0A9807B689B8DB7F8BE209A42D8
:1030400080F0A2807B68B7F8BE20DA857B68DB6BF6
:10305000DB69B3F5807F00F088807B681B680C33E8
:10306000C7F88830D7F8883053E8003FC7F8843075
:10307000D7F8843023F48073C7F8B8307B681B68B6
:103080000C33D7F8B820C7F89420C7F89030D7F899
:103090009010D7F8942041E80023C7F88C30D7F877
:1030A0008C30002BD9D17B681B6814337B677B6F16
:1030B00053E8003F3B673B6F23F00103C7F8B43090
:1030C0007B681B681433D7F8B420C7F88020FB67EF
:1030D000F96FD7F8802041E80023BB67BB6F002B56
:1030E000E1D17B681B6814333B663B6E53E8003FBD
:1030F000FB65FB6D23F04003C7F8B0307B681B68AD
:103100001433D7F8B020FA66BB66B96EFA6E41E8A0
:1031100000237B667B6E002BE3D17B68202283F843
:1031200042207B6800221A637B681B680C33FB64B7
:10313000FB6C53E8003FBB64BB6C23F01003C7F883
:10314000AC307B681B680C33D7F8AC20BA657B6564
:10315000796DBA6D41E800233B653B6D002BE3D1EF
:103160007B68DB6B1846FEF745FF7B6802225A63DB
:103170007B689A8D7B68DB8D9BB2D31A9BB2194614
:10318000786802F0A3F9B3E07B689B8DB7F8BE20A6
:103190009A4240F0AD807B68DB6BDB69B3F5807FE2
:1031A00040F0A6807B6802225A637B689B8D19469B
:1031B000786802F08BF99BE05F3801087B689A8D94
:1031C0007B68DB8D9BB2D31AA7F8CE307B68DB8D92
:1031D0009BB2002B00F08E80B7F8CE30002B00F0B1
:1031E00089807B681B680C33BB63BB6B53E8003F73
:1031F0007B637B6B23F49073C7F8C8307B681B68D4
:103200000C33D7F8C8207A643B64396C7A6C41E897
:103210000023FB63FB6B002BE3D17B681B6814333B
:103220007B627B6A53E8003F3B623B6A23F0010309
:10323000C7F8C4307B681B681433D7F8C4203A63DE
:10324000FB62F96A3A6B41E80023BB62BB6A002B60
:10325000E3D17B68202283F842207B6800221A6336
:103260007B681B680C333B613B6953E8003FFB60A4
:10327000FB6823F01003C7F8C0307B681B680C3371
:10328000D7F8C020FA61BB61B969FA6941E8002347
:103290007B617B69002BE3D17B6802225A63B7F81C
:1032A000CE301946786802F011F923E0D7F8E430FF
:1032B00003F08003002B09D0D7F8E03003F080033F
:1032C000002B03D0786800F0DBFA14E0D7F8E43084
:1032D00003F04003002B0ED0D7F8E03003F040039A
:1032E000002B08D0786800F01BFB04E000BF02E070
:1032F00000BF00E000BFE837BD4680BD80B483B0AA
:1033000000AF786000BF0C37BD465DF8047B7047A6
:1033100080B483B000AF786000BF0C37BD465DF865
:10332000047B704780B483B000AF786000BF0C3777
:10333000BD465DF8047B704780B483B000AF786011
:1033400000BF0C37BD465DF8047B704780B59CB06C
:1033500000AF78607B689B6BFB667B681B681B68B3
:1033600003F48073002B72D1FB6E0022DA85FB6EB2
:103370001B680C33FB64FB6C53E8003FBB64BB6C05
:1033800023F48073BB66FB6E1B680C33BA6EBA65A0
:103390007B65796DBA6D41E800233B653B6D002B81
:1033A000E5D1FB6E1B681433BB63BB6B53E8003F76
:1033B0007B637B6B23F001037B66FB6E1B6814331E
:1033C0007A6E7A643B64396C7A6C41E80023FB6363
:1033D000FB6B002BE5D1FB6E1B6814337B627B6AB1
:1033E00053E8003F3B623B6A23F040033B66FB6EC1
:1033F0001B6814333A6E3A63FB62F96A3A6B41E830
:103400000023BB62BB6A002BE5D1FB6E202283F850
:103410004220FB6E1B6B012B19D1FB6E1B680C331A
:103420003B613B6953E8003FFB60FB6823F01003FE
:10343000FB65FB6E1B680C33FA6DFA61BB61B96901
:10344000FA6941E800237B617B69002BE5D1FB6EC3
:1034500000225A63FB6E1B6B012B06D1FB6E9B8D0A
:103460001946F86E02F032F802E0F86EFFF750FFEE
:1034700000BF7037BD4680BD80B584B000AF7860B6
:103480007B689B6BFB60FB6801225A63FB681B6BCC
:10349000012B08D1FB689B8D5B089BB21946F8682D
:1034A00002F014F802E0F868FFF73CFF00BF1037A5
:1034B000BD4680BD80B584B000AF78600023FB605E
:1034C0007B689B6BBB60BB681B685B6903F0800318
:1034D000802B0CBF01230023DBB2FB60BB6893F899
:1034E0004130DBB2212B08D1FB68002B05D0BB6833
:1034F0000022DA84B86800F027F9BB681B685B69B2
:1035000003F04003402B0CBF01230023DBB2FB6020
:10351000BB6893F84230DBB2222B08D1FB68002B4A
:1035200005D0BB680022DA85B86800F035F9BB68C1
:103530005B6C43F01002BB685A64B868FFF7FCFE8E
:1035400000BF1037BD4680BD80B586B000AFF860C3
:10355000B9603B601346FB713BE03B6AB3F1FF3F50
:1035600037D0FFF783F902463B68D31A3A6A9A428A
:1035700002D33B6A002B01D103233AE0FB681B68AE
:10358000DB6803F00403002B23D0BB68802B20D022
:10359000BB68402B1DD0FB681B681B6803F0080349
:1035A000082B16D100237B61FB681B681B687B61BD
:1035B000FB681B685B687B617B69F86800F0ECF86E
:1035C000FB6808225A64FB68002283F8402001232C
:1035D0000FE0FB681B681A68BB681340BA689A4220
:1035E0000CBF01230023DBB21A46FB799A42B4D008
:1035F000002318461837BD4680BD000080B598B03E
:1036000000AFF860B9601346FB80BA68FB689A6245
:10361000FB68FA889A85FB6800225A64FB682222BC
:1036200083F84220FB68DB6B444ADA63FB68DB6BA0
:10363000434A1A64FB68DB6B424ADA64FB68DB6B63
:1036400000221A6507F10803FB65FB68D86BFB686D
:103650001B6804331946FB6D1A68FB88FEF772FC81
:103660000346002B08D0FB6810225A64FB68202216
:1036700083F8422001235DE000233B61FB681B6867
:103680001B683B61FB681B685B683B613B69FB68CF
:103690001B69002B19D0FB681B680C333B643B6C27
:1036A00053E8003FFB63FB6B43F48073BB65FB682F
:1036B0001B680C33BA6DFA64BB64B96CFA6C41E8F0
:1036C00000237B647B6C002BE5D1FB681B68143303
:1036D000FB62FB6A53E8003FBB62BB6A43F0010335
:1036E0007B65FB681B6814337A6DBA637B63796B07
:1036F000BA6B41E800233B633B6B002BE5D1FB68D1
:103700001B681433BB61BB6953E8003F7B617B6975
:1037100043F040033B65FB681B6814333A6D7A62E3
:103720003B62396A7A6A41E80023FB61FB69002B3E
:10373000E5D1002318466037BD4680BD4D330108F2
:1037400079340108B534010880B489B000AF7860DD
:103750007B681B680C33FB60FB6853E8003FBB6071
:10376000BB6823F0C003FB617B681B680C33FA69FC
:10377000BA617B617969BA6941E800233B613B69C1
:10378000002BE5D17B68202283F8412000BF24373D
:10379000BD465DF8047B704780B495B000AF78609B
:1037A0007B681B680C337B637B6B53E8003F3B6398
:1037B0003B6B23F49073FB647B681B680C33FA6CDF
:1037C0003A64FB63F96B3A6C41E80023BB63BB6B63
:1037D000002BE5D17B681B6814333B623B6A53E8DE
:1037E000003FFB61FB6923F00103BB647B681B683E
:1037F0001433BA6CFA62BB62B96AFA6A41E8002310
:103800007B627B6A002BE5D17B681B6B012B19D196
:103810007B681B680C33FB60FB6853E8003FBB60B0
:10382000BB6823F010037B647B681B680C337A6CE5
:10383000BA617B617969BA6941E800233B613B6900
:10384000002BE5D17B68202283F842207B68002290
:103850001A6300BF5437BD465DF8047B704780B5DE
:1038600084B000AF78607B689B6BFB60FB680022D4
:10387000DA85F868FFF760FD00BF1037BD4680BDF0
:1038800080B485B000AF78607B6893F84130DBB2DC
:10389000212B3ED17B689B68B3F5805F14D17B6898
:1038A0001B69002B10D17B681B6AFB60FB681B88BF
:1038B0001A467B681B68C2F308025A607B681B6A61
:1038C0009A1C7B681A6208E07B681B6A591C7A683C
:1038D00011621A787B681B685A607B68DB8C9BB22C
:1038E000013B9BB27A681946D184002B0FD17B68CB
:1038F0001B68DA687B681B6822F08002DA607B68EC
:103900001B68DA687B681B6842F04002DA600023BB
:1039100000E0022318461437BD465DF8047B70476B
:1039200080B582B000AF78607B681B68DA687B681E
:103930001B6822F04002DA607B68202283F8412075
:103940007868FFF7DBFC002318460837BD4680BDCA
:1039500080B58CB000AF78600023FB620023BB62AF
:103960007B6893F84230DBB2222B40F0AA807B6860
:103970009B68B3F5805F15D17B681B69002B11D163
:103980007B689B6ABB627B681B685B689BB2C3F306
:1039900008039AB2BB6A1A807B689B6A9A1C7B6890
:1039A0009A6224E07B689B6AFB627B689B68B3F544
:1039B000805F07D07B689B68002B0AD17B681B69FE
:1039C000002B06D17B681B685B68DAB2FB6A1A7051
:1039D00008E07B681B685B68DBB203F07F03DAB248
:1039E000FB6A1A707B689B6A5A1C7B689A627B68C8
:1039F000DB8D9BB2013B9BB27A681946D185002BC7
:103A00005DD17B681B68DA687B681B6822F0200246
:103A1000DA607B681B68DA687B681B6822F4807256
:103A2000DA607B681B685A697B681B6822F00102B8
:103A30005A617B68202283F842207B6800225A6307
:103A40007B681B6B012B35D17B6800221A637B6876
:103A50001B680C337B617B6953E8003F3B613B692A
:103A600023F010037B627B681B680C337A6A3A622E
:103A7000FB61F9693A6A41E80023BB61BB69002B2D
:103A8000E5D17B681B681B6803F01003102B0AD17B
:103A90000023FB607B681B681B68FB607B681B68FE
:103AA0005B68FB60FB687B689B8D1946786801F05A
:103AB0000DFD02E07868FFF72BFC002302E00023F5
:103AC00000E0022318463037BD4680BD2DE9B04FD7
:103AD000C0B000AFC7F8F400D7F8F4301B681B691A
:103AE00023F44050D7F8F430D968D7F8F4301A6886
:103AF00040EA01031361D7F8F4309A68D7F8F4303C
:103B00001B691A43D7F8F4305B691A43D7F8F430CD
:103B1000DB691343C7F8F830D7F8F4301B68DB686B
:103B200023F4164121F00C01D7F8F4301A68D7F8C5
:103B3000F8300B43D360D7F8F4301B685B6923F48B
:103B40004070D7F8F4309969D7F8F4301A6840EA31
:103B500001035361D7F8F4301A688F4B9A4205D0AD
:103B6000D7F8F4301A688D4B9A4204D1FDF752FC15
:103B7000C7F8FC0003E0FDF739FCC7F8FC00D7F8F4
:103B8000F430DB69B3F5004F40F00C81D7F8FC301E
:103B90000022C7F8E830C7F8EC20D7E93A452246BA
:103BA0002B469118B9655B41FB65D7E91623214681
:103BB00012EB0108294643EB01094FF000024FF0D8
:103BC00000034FEAC90343EA58734FEAC80290461C
:103BD0009946234618EB0303C7F8E0302B4649EB20
:103BE0000303C7F8E430D7F8F4305B680022C7F865
:103BF000D830C7F8DC20D7E936120B46DB183B6516
:103C0000134642EB03037B65D7E91423D7E9380158
:103C1000FCF7DEFA02460B46614BA3FB02235B096D
:103C20001C01D7F8FC300022C7F8D030C7F8D420E8
:103C3000D7E9348942464B469118B9645B41FB642D
:103C4000D7E91223414612EB010A494643EB010B27
:103C50004FF000024FF000034FEACB0343EA5A73E0
:103C60004FEACA0292469B4643461AEB0303C7F843
:103C7000C8304B464BEB0303C7F8CC30D7F8F430D1
:103C80005B680022C7F8C030C7F8C420D7E93012FB
:103C90000B46DB183B64134642EB03037B64D7E916
:103CA0001023D7E93201FCF793FA02460B4611467E
:103CB0003B4BA3FB01235B09642202FB03F3CB1AFA
:103CC000DB0003F13202364BA3FB02235B095B00EE
:103CD00003F4F8731C44D7F8FC300022C7F8B8305E
:103CE000C7F8BC20D7E92E8942464B469118B963E4
:103CF0005B41FB63D7E90E234146511839634946BE
:103D00004B417B634FF000024FF00003D7E90CAB4F
:103D10005946CB00514643EA51735146CA001046FA
:103D20001946034642469B18C7F8B0304B460A4630
:103D300042EB0303C7F8B430D7F8F4305B680022D5
:103D4000C7F8A830C7F8AC20D7E92A120B46DB1811
:103D5000BB62134642EB0303FB62D7E90A23D7E9B0
:103D60002C01FCF735FA02460B460D4BA3FB021360
:103D70005B09642101FB03F3D31ADB003233084AE9
:103D8000A2FB03235B0903F00702D7F8F4301B689A
:103D900022449A6006E100BF001001400014014077
:103DA0001F85EB51D7F8FC300022C7F8A030C7F8C8
:103DB000A420D7E9288942464B46911839625B41D5
:103DC0007B62D7E9082341465418494643EB010575
:103DD0004FF000024FF00003EB0043EA5473E2009F
:103DE00014461D464346E318C7F898304B4645EB4A
:103DF0000303C7F89C30D7F8F4305B680022C7F89B
:103E00009030C7F894204FF000024FF00003D7E93C
:103E1000244529468B00214643EA917321468A00B6
:103E2000D7E92601FCF7D4F902460B46604BA3FB09
:103E300002235B091C01D7F8FC300022C7F8883048
:103E4000C7F88C20D7E9228942464B469118B961C0
:103E50005B41FB61D7E90623414651183961494668
:103E60004B417B614FF000024FF00003D7E904ABF8
:103E70005946CB00514643EA51735146CA00104699
:103E80001946034642469B18C7F880304B460A46FF
:103E900042EB0303C7F88430D7F8F4305B680022A4
:103EA000BB67FA674FF000024FF00003D7E91E89A5
:103EB00049468B00414643EA917341468A00D7E95F
:103EC0002001FCF785F902460B461146384BA3FB4F
:103ED00001235B09642202FB03F3CB1A1B0132337B
:103EE000334AA2FB03235B0903F0F0031C44D7F819
:103EF000FC3000223B677A67D7E91C8942464B4673
:103F00009118B9605B41FB60D7E902234146511823
:103F1000396049464B417B604FF000024FF000038F
:103F2000D7E900AB5946CB00514643EA517351469D
:103F3000CA0010461946034642469B18BB664B46CC
:103F40000A4642EB0303FB66D7F8F4305B680022B5
:103F50003B667A664FF000024FF00003D7E91889FC
:103F600049468B00414643EA917341468A00D7E9AE
:103F70001A01FCF72DF902460B460D4BA3FB021369
:103F80005B09642101FB03F3D31A1B013233084A96
:103F9000A2FB03235B0903F00F02D7F8F4301B6880
:103FA00022449A6000BF07F58077BD46BDE8B08F18
:103FB0001F85EB5180B483B000AF78607B6803F15C
:103FC00008027B685A607B684FF0FF329A607B681A
:103FD00003F108027B68DA607B6803F108027B6802
:103FE0001A617B6800221A6000BF0C37BD465DF87D
:103FF000047B704780B483B000AF78607B68002298
:104000001A6100BF0C37BD465DF8047B704780B471
:1040100085B000AF786039607B685B68FB603B68A7
:10402000FA685A60FB689A683B689A60FB689B680C
:104030003A685A60FB683A689A603B687A681A6125
:104040007B681B685A1C7B681A6000BF1437BD462A
:104050005DF8047B704780B485B000AF786039604C
:104060003B681B68BB60BB68B3F1FF3F03D17B6853
:104070001B69FB600CE07B680833FB6002E0FB68B7
:104080005B68FB60FB685B681B68BA689A42F6D2A3
:10409000FB685A683B685A603B685B683A689A609C
:1040A0003B68FA689A60FB683A685A603B687A68CD
:1040B0001A617B681B685A1C7B681A6000BF143742
:1040C000BD465DF8047B704780B485B000AF786072
:1040D0007B681B69FB607B685B687A6892689A60A2
:1040E0007B689B687A6852685A60FB685B687A688C
:1040F0009A4203D17B689A68FB685A607B68002209
:104100001A61FB681B685A1EFB681A60FB681B6813
:1041100018461437BD465DF8047B704780B58EB0F5
:1041200004AFF860B9607A603B607B6B002B0BD109
:104130004FF0500383F31188BFF36F8FBFF34F8F9E
:104140003B6200BF00BFFDE7BB6B002B0BD14FF004
:10415000500383F31188BFF36F8FBFF34F8FFB6161
:1041600000BF00BFFDE754233B613B69542B0BD0DC
:104170004FF0500383F31188BFF36F8FBFF34F8F5E
:10418000BB6100BF00BFFDE73B69BB6B002B1ED0CE
:104190007B6B002B1BD0BB6B7B627B6A7A6B1A63D9
:1041A0007B6A022283F85120002303937B6A0293E7
:1041B00007F1140301933B6B00933B687A68B9687D
:1041C000F86800F050F8786A00F0D6F801E00023B3
:1041D0007B617B6918462837BD4680BD80B58CB0B1
:1041E00004AFF860B9603B601346FB80FB889B001E
:1041F000184600F041FD78617B69002B0ED05420F9
:1042000000F03AFDF861FB69002B03D0FB697A6985
:104210001A6305E0786900F0FDFD01E00023FB6111
:10422000FB69002B17D0FB69002283F85120FA8824
:1042300000230393FB690293FB6A0193BB6A00931B
:104240003B68B968F86800F00EF8F86900F094F877
:104250000123BB6102E04FF0FF33BB61BB6918462D
:104260002037BD4680BD80B588B000AFF860B9602A
:104270007A603B603B6B1A6B7B6803F18043013BC8
:104280009B001344BB61BB6923F00703BB61BB699F
:1042900003F00703002B0BD04FF0500383F311887A
:1042A000BFF36F8FBFF34F8F7B6100BF00BFFDE790
:1042B000BB68002B1FD00023FB6112E0BA68FB69CA
:1042C000134419783A6BFB69134434330A461A7065
:1042D000BA68FB6913441B78002B06D0FB690133D5
:1042E000FB61FB690F2BE9D900E000BF3B6B0022AB
:1042F00083F8432003E03B6B002283F83420BB6A41
:10430000062B01D90623BB623B6BBA6ADA623B6BB0
:10431000BA6A5A643B6B00229A643B6B04331846BA
:10432000FFF768FE3B6B18331846FFF763FE3B6BE5
:104330003A6B1A61BB6AC3F107023B6B9A613B6B34
:104340003A6B5A623B6B0022DA643B6B002283F8C3
:1043500050203A68F968B86900F07CFE02463B6B71
:104360001A60FB6A002B02D0FB6A3A6B1A6000BF2E
:104370002037BD4680BD000080B582B000AF7860B8
:1043800000F09AFF2A4B1B680133294A1360294B1E
:104390001B68002B09D1274A7B681360244B1B68DC
:1043A000012B10D100F0C4FA0DE0234B1B68002B49
:1043B00009D1204B1B68DA6A7B68DB6A9A4202D813
:1043C0001C4A7B6813601D4B1B6801331B4A13603A
:1043D0007B68DB6A01229A40194B1B681343184A19
:1043E00013607B68DA6A13469B0013449B00154AEE
:1043F0001A447B68043319461046FFF708FE00F0A4
:104400008DFF0D4B1B68002B0ED00A4B1B68DA6A20
:104410007B68DB6A9A4207D20B4B4FF080521A60DE
:10442000BFF34F8FBFF36F8F00BF0837BD4680BD0E
:10443000AC010020AC000020B8010020C801002021
:10444000B4010020B000002004ED00E080B584B08D
:1044500000AF78600023FB607B68002B18D0144B02
:104460001B68002B0BD04FF0500383F31188BFF370
:104470006F8FBFF34F8FBB6000BF00BFFDE700F041
:104480007DF80021786800F011FB00F085F8F860F5
:10449000FB68002B07D1074B4FF080521A60BFF327
:1044A0004F8FBFF36F8F00BF1037BD4680BD00BF79
:1044B000D401002004ED00E080B58AB004AF0023F1
:1044C000BB6000237B603A46391D07F1080318469C
:1044D00001F09AFF39687B68BA6802920193002361
:1044E000009300230A461F491F48FFF717FE0346A3
:1044F0001E4A13601D4B1B68002B02D001237B61F9
:1045000001E000237B617B69012B16D14FF0500342
:1045100083F31188BFF36F8FBFF34F8F3B6100BFF1
:10452000134B4FF0FF321A60124B01221A60124BEC
:1045300000221A6000F01CFE0FE07B69B3F1FF3F20
:104540000BD14FF0500383F31188BFF36F8FBFF38C
:104550004F8FFB6000BF00BFFDE700BF1837BD46AF
:1045600080BD00BFC890010801490108D0010020AA
:10457000CC010020B8010020B001002080B400AFC1
:10458000044B1B680133034A136000BFBD465DF84E
:10459000047B7047D401002080B584B000AF0023B5
:1045A000FB600023BB60424B1B68002B0BD14FF01C
:1045B000500383F31188BFF36F8FBFF34F8F3B60BE
:1045C00000BF00BFFDE700F077FE394B1B68013BE1
:1045D000374A1360364B1B68002B61D1354B1B6883
:1045E000002B5DD02EE0344BDB68DB68FB60FB68A2
:1045F00018331846FFF768FDFB6804331846FFF7C9
:1046000063FDFB68DB6A01229A402C4B1B68134355
:104610002A4A1360FB68DA6A13469B0013449B0026
:10462000274A1A44FB68043319461046FFF7EFFC8B
:10463000FB68DA6A234B1B68DB6A9A4202D3224B7F
:1046400001221A601C4B1B68002BCCD1FB68002B8D
:1046500001D000F00BFA1D4B1B687B607B68002BC0
:1046600010D000F037F80346002B02D0164B012281
:104670001A607B68013B7B607B68002BF1D1134B98
:1046800000221A60104B1B68002B09D00123BB606D
:104690000F4B4FF080521A60BFF34F8FBFF36F8FF5
:1046A00000F03CFEBB6818461037BD4680BD00BF19
:1046B000D4010020AC0100206C010020B4010020D6
:1046C000B0000020AC000020C0010020BC01002090
:1046D00004ED00E080B586B000AF00237B614F4B56
:1046E0001B68002B40F08F804D4B1B6801333B61F2
:1046F0004B4A3B6913603B69002B21D1494B1B6836
:104700001B68002B0BD04FF0500383F31188BFF3CD
:104710006F8FBFF34F8F3B6000BF00BFFDE7414B82
:104720001B68FB60404B1B683E4A13603E4AFB68B7
:1047300013603E4B1B6801333C4A136000F096F94E
:104740003B4B1B683A699A4248D3364B1B681B683F
:10475000002B04D1364B4FF0FF321A603EE0314B54
:104760001B68DB68DB68BB60BB685B687B603A69C1
:104770007B689A4203D22E4A7B6813602EE0BB68A6
:1047800004331846FFF7A0FCBB689B6A002B04D0DB
:10479000BB6818331846FFF797FCBB68DB6A012239
:1047A0009A40244B1B681343224A1360BB68DA6AA1
:1047B00013469B0013449B001F4A1A44BB680433F2
:1047C00019461046FFF723FCBB68DA6A1B4B1B68CF
:1047D000DB6A9A42B9D301237B61B6E7174B1B68AA
:1047E000DA6A154913469B0013449B000B441B686F
:1047F000012B01D901237B61114B1B68002B07D0D2
:1048000001237B6104E00F4B1B6801330D4A1360E9
:104810007B6918461837BD4680BD00BFD401002013
:10482000B00100206401002068010020C4010020C4
:10483000CC010020B4010020B0000020AC0000201A
:10484000C0010020BC01002080B487B000AF274B1E
:104850001B68002B03D0264B01221A6040E0244B3A
:1048600000221A60234B1B68FB60FB68B3FA83F3DA
:10487000FB72FB7AC3F11F037B611F497A69134600
:104880009B0013449B000B441B68002B0BD14FF083
:10489000500383F31188BFF36F8FBFF34F8F7B609B
:1048A00000BF00BFFDE77A6913469B0013449B00DD
:1048B000114A13443B613B695B685A683B695A6023
:1048C0003B695A683B6908339A4204D13B695B688B
:1048D0005A683B695A603B695B68DB68074A13604A
:1048E00000BF1C37BD465DF8047B7047D401002033
:1048F000C0010020B4010020B0000020AC00002066
:1049000080B582B000AF786000F052F8064B1B68AB
:10491000012BF9D9054B4FF080521A60BFF34F8F2E
:10492000BFF36F8FF0E700BFB000002004ED00E0A0
:1049300080B582B000AF00237B600CE07A6813463C
:104940009B0013449B00124A13441846FFF732FBA6
:104950007B6801337B607B68062BEFD90D48FFF73E
:1049600029FB0D48FFF726FB0C48FFF723FB0C48FB
:10497000FFF720FB0B48FFF71DFB0B4B054A1A60A6
:104980000A4B054A1A6000BF0837BD4680BD00BF0C
:10499000B00000203C010020500100206C010020EC
:1049A000800100209801002064010020680100209F
:1049B00080B582B000AF19E000F07EFC104BDB68E0
:1049C000DB687B607B6804331846FFF77DFB0D4B8B
:1049D0001B68013B0B4A13600B4B1B68013B0A4AE7
:1049E000136000F09BFC786800F010F8064B1B6821
:1049F000002BE1D100BF00BF0837BD4680BD00BF1E
:104A000080010020AC0100209401002080B584B01A
:104A100000AF78607B6893F85130002B08D17B6839
:104A20001B6B184600F0F6F9786800F0F3F919E00E
:104A30007B6893F85130012B03D1786800F0EAF9D4
:104A400010E07B6893F85130022B0BD04FF05003ED
:104A500083F31188BFF36F8FBFF34F8FFB6000BFED
:104A600000BFFDE700BF1037BD4680BD80B483B0F6
:104A700000AF0C4B1B681B68002B04D10A4B4FF096
:104A8000FF321A6008E0074B1B68DB68DB687B605D
:104A90007B685B68044A136000BF0C37BD465DF855
:104AA000047B704764010020CC01002080B584B0F5
:104AB00000AF78603960294B1B68FB60284B1B688E
:104AC00004331846FFF700FB0346002B0BD1244BA1
:104AD0001B68DB6A012202FA03F3DA43214B1B68ED
:104AE0001340204A13607B68B3F1FF3F0AD13B6853
:104AF000002B07D01A4B1B68043319461A48FFF7DE
:104B000086FA26E0FA687B681344BB60144B1B6886
:104B1000BA685A60BA68FB689A4209D2134B1A689D
:104B20000F4B1B68043319461046FFF794FA10E048
:104B30000F4B1A680A4B1B68043319461046FFF7DF
:104B40008AFA0C4B1B68BA689A4202D2094ABB68BF
:104B5000136000BF1037BD4680BD00BFB00100200C
:104B6000AC000020B4010020980100206801002062
:104B700064010020CC01002080B485B000AF034662
:104B8000FB800023FB60B7F90630842B05D0B7F912
:104B90000620FB6813440333FB60FB681846143798
:104BA000BD465DF8047B704780B500AFFFF784FC1D
:104BB0000023184680BDF0B589B004AF7860396035
:104BC0007B685B69002B20D07B689B69002B1CD025
:104BD0007B685C687B681D687B681E697B68B3F9CD
:104BE00008301846FFF7C8FF01467B685B697A68A2
:104BF00092690292019300913B6832462946204611
:104C0000FFF78CFA0346FB601CE07B685C687B68FE
:104C10001D687B681B699EB27B68B3F90830184633
:104C2000FFF7AAFF024607F10C03019300923B68CD
:104C3000324629462046FFF7D1FA0346012B01D020
:104C4000002300E0FB6818461437BD46F0BD80B570
:104C500084B000AF78607B68FB60FB68002B01D0FC
:104C6000FB6800E001231846FFF7F0FB002318461D
:104C70001037BD4680BD000080B58AB000AF7860B7
:104C80000023FB61FFF77AFC5C4B1B68002B01D112
:104C900000F024F95A4B1A687B681340002B40F04F
:104CA00095807B68002B1ED008227B6813447B60B4
:104CB0007B6803F00703002B15D07B6823F0070304
:104CC00008337B607B6803F00703002B0BD04FF0A9
:104CD000500383F31188BFF36F8FBFF34F8F7B6156
:104CE00000BF00BFFDE77B68002B6FD0454B1B6802
:104CF0007A689A426AD8444B3B62434B1B687B629A
:104D000004E07B6A3B627B6A1B687B627B6A5B6850
:104D10007A689A4203D97B6A1B68002BF1D1374B22
:104D20001B687A6A9A4251D03B6A1B680822134476
:104D3000FB617B6A1A683B6A1A607B6A5A687B6807
:104D4000D21A08235B009A4220D97A6A7B681344FE
:104D5000BB61BB6903F00703002B0BD04FF050037E
:104D600083F31188BFF36F8FBFF34F8F3B6100BF99
:104D700000BFFDE77B6A5A687B68D21ABB695A603C
:104D80007B6A7A685A60B86900F00AF91D4B1A68A4
:104D90007B6A5B68D31A1B4A13601A4B1A681B4B59
:104DA0001B689A4203D2174B1B68184A13607B6A30
:104DB0005A68134B1B681A437B6A5A607B6A00224D
:104DC0001A60134B1B680133114A1360FFF7E4FBB1
:104DD000FB6903F00703002B0BD04FF0500383F364
:104DE0001188BFF36F8FBFF34F8FFB6000BF00BF11
:104DF000FDE7FB6918462837BD4680BDE05100201D
:104E0000F4510020E4510020D8510020E851002046
:104E1000EC51002080B586B000AF78607B687B6184
:104E20007B68002B4FD008235B427A6913447B6177
:104E30007B693B613B695A68254B1B681340002B1B
:104E40000BD14FF0500383F31188BFF36F8FBFF383
:104E50004F8FFB6000BF00BFFDE73B691B68002B65
:104E60000BD04FF0500383F31188BFF36F8FBFF364
:104E70004F8FBB6000BF00BFFDE73B695A68144B12
:104E80001B681340002B1ED03B691B68002B1AD1F6
:104E90003B695A680E4B1B68DB431A403B695A60FA
:104EA000FFF76CFB3B695A680A4B1B681344094ABD
:104EB0001360386900F074F8074B1B680133064A29
:104EC0001360FFF769FB00BF1837BD4680BD00BF08
:104ED000F4510020E4510020F051002080B485B04E
:104EE00000AF4FF4A043BB60274BFB60FB6803F0AF
:104EF0000703002B0CD0FB680733FB60FB6823F033
:104F00000703FB60BA68FB68D31A1F4A1344BB60EF
:104F1000FB687B601D4A7B6813601C4B00225A6053
:104F20007B68BA681344FB600822FB689B1AFB602D
:104F3000FB6823F00703FB60FB68154A1360144B02
:104F40001B6800225A60124B1B6800221A607B68A3
:104F50003B603B68FA68D21A3B685A600C4B1A688F
:104F60003B681A603B685B680A4A13603B685B6891
:104F7000094A1360094B4FF000421A6000BF143712
:104F8000BD465DF8047B7047D8010020D851002051
:104F9000E0510020E8510020E4510020F4510020AD
:104FA00080B485B000AF7860284BFB6002E0FB68FE
:104FB0001B68FB60FB681B687A689A42F7D8FB683D
:104FC000BB60FB685B68BA6813447A689A4208D190
:104FD000FB685A687B685B681A44FB685A60FB6828
:104FE0007B607B68BB607B685B68BA681A44FB685F
:104FF0001B689A4218D1FB681A68154B1B689A42C5
:105000000DD07B685A68FB681B685B681A447B6834
:105010005A60FB681B681A687B681A6008E00C4BD2
:105020001A687B681A6003E0FB681A687B681A607C
:10503000FA687B689A4202D0FB687A681A6000BFFF
:105040001437BD465DF8047B704700BFD85100207F
:10505000E051002080B485B000AFF860B9607A609C
:10506000FB68043BFB60FB684FF080721A60FB68D2
:10507000043BFB60BB6823F00102FB681A60FB681D
:10508000043BFB600C4AFB681A60FB68143BFB6046
:105090007A68FB681A60FB68043BFB60FB686FF092
:1050A00002021A60FB68203BFB60FB68184614375D
:1050B000BD465DF8047B7047BD50010880B485B0E3
:1050C00000AF00237B60134B1B68B3F1FF3F0BD095
:1050D0004FF0500383F31188BFF36F8FBFF34F8FEF
:1050E000FB6000BF00BFFDE74FF0500383F3118862
:1050F000BFF36F8FBFF34F8FBB6000BF00BF7B68F4
:10510000002BFCD000BF00BF1437BD465DF8047B08
:10511000704700BF2C0000200000000000000000CD
:10512000074B19680868B0E8F04F80F30988BFF3AF
:105130006F8F4FF0000080F311887047AFF300804D
:10514000AC00002000BF00BF08480068006880F382
:1051500008884FF0000080F3148862B661B6BFF390
:105160004F8FBFF36F8F00DF00BF00BF08ED00E07F
:1051700080B586B000AF474B1B68474A93420BD1BE
:105180004FF0500383F31188BFF36F8FBFF34F8F3E
:10519000FB6000BF00BFFDE73E4B1B683F4A9342E8
:1051A0000BD14FF0500383F31188BFF36F8FBFF320
:1051B0004F8F3B6100BF00BFFDE7394B7B617B69CF
:1051C0001B78DBB27B607B69FF221A707B691B78DE
:1051D000DBB2FB70FB78DBB203F05003DAB2314B89
:1051E0001A70314B07221A6009E02F4B1B68013BF4
:1051F0002D4A1360FB78DBB25B00DBB2FB70FB78FF
:10520000DBB203F08003802BEFD0274B1B68C3F188
:105210000703042B0BD04FF0500383F31188BFF327
:105220006F8FBFF34F8FBB6000BF00BFFDE71E4B0A
:105230001B681B021C4A13601B4B1B6803F4E063D2
:10524000194A13607B68DAB27B691A70174B1B68C6
:10525000164A43F470031360144B1B68134A43F05F
:105260007043136000F0DAF8114B00221A6000F06E
:10527000F9F8104B1B680F4A43F040431360FFF7E7
:1052800063FFFFF7E1FAFFF719FF0023184618370D
:10529000BD4680BD00ED00E071C20F4170C20F41FC
:1052A00000E400E0F8510020FC51002020ED00E077
:1052B0002C00002034EF00E080B483B000AF4FF04A
:1052C000500383F31188BFF36F8FBFF34F8F7B6061
:1052D00000BF104B1B6801330E4A13600D4B1B6857
:1052E000012B10D10C4B1B68DBB2002B0BD04FF005
:1052F000500383F31188BFF36F8FBFF34F8F3B6071
:1053000000BF00BFFDE700BF0C37BD465DF8047B62
:10531000704700BF2C00002004ED00E080B483B093
:1053200000AF124B1B68002B0BD14FF0500383F3DF
:105330001188BFF36F8FBFF34F8F7B6000BF00BF3B
:10534000FDE70A4B1B68013B084A1360074B1B68CB
:10535000002B05D100233B603B6883F3118800BF1D
:1053600000BF0C37BD465DF8047B70472C00002061
:10537000EFF30980BFF36F8F154B1A681EF0100F03
:1053800008BF20ED108A20E9F04F106009B44FF0FB
:10539000500080F31188BFF34F8FBFF36F8FFFF77B
:1053A00053FA4FF0000080F3118809BC19680868AF
:1053B000B0E8F04F1EF0100F08BFB0EC108A80F379
:1053C0000988BFF36F8F7047AFF30080AFF30080A1
:1053D000AC00002000BF00BF80B582B000AF4FF02E
:1053E000500383F31188BFF36F8FBFF34F8F7B6040
:1053F00000BFFFF76FF90346002B03D0064B4FF0B9
:1054000080521A6000233B603B6883F3118800BF21
:1054100000BF0837BD4680BD04ED00E080B400AF9A
:105420000B4B00221A600B4B00221A600A4B1B68C0
:105430000A4AA2FB03239B09094A013B1360044B60
:1054400007221A6000BFBD465DF8047B704700BFAD
:1054500010E000E018E000E000000020D34D6210F2
:1054600014E000E0DFF80C00016841F47001016015
:10547000704700BF88ED00E080B584B000AFF860F1
:10548000B9607A607B689AB24FF0FF33B96804481C
:10549000FDF76CFA7B6818461037BD4680BD00BF2B
:1054A0005083002080B584B000AFF860B9607A60A6
:1054B0004FF0FF330122B9680348FDF7E2FA0123F8
:1054C00018461037BD4680BD5083002080B584B09B
:1054D00000AF78600B467B807B681B68414A934233
:1054E0001ED10023FB607B681B681B68FB607B6828
:1054F0001B685B68FB60FB683B493C4801F0F0FFC0
:1055000040F6B83238493A48FDF752FB384BDB6B6E
:105510001B681A68364BDB6B1B6822F008021A60A6
:105520007B681B68334A934257D10023BB607B687A
:105530001B681B68BB607B681B685B68BB60BB68E3
:105540002D4B1B889BB21A467B88134440F6B7321A
:1055500093420CDD284B1B889BB219467B881A4668
:10556000264801F0BDFF244B00221A8025E0224B83
:105570001B889BB21A46224B13447A88214918464D
:1055800002F0C1FA1C4B1B889AB27B8813449AB272
:10559000194B1A80184B1B889BB21A46184B0021D6
:1055A0009954154B1B889AB2174B1A80174B01223E
:1055B0005A70164B5A78164B1A7040F6B832114989
:1055C0001448FDF7F5FA134BDB6B1B681A68114B97
:1055D000DB6B1B6822F008021A6000BF1037BD4663
:1055E00080BD00BF0010014096770020D0900108D8
:1055F000508300200044004074690020E8900108B6
:1056000000520020DA6B0020BA5D0020D86B002029
:10561000B85D00209883002080B500AF62B600BF5F
:105620002C4B2D4A9A602D4B1B6898680023022250
:10563000002101F0C5FF294B1B68D8680023022216
:10564000002101F0BDFFFDF7DBF800F057F800F096
:105650007BFE01F073F801F0A7F801F0CFF82048C5
:1056600001F0A6FF1F4801F0A3FF1F48FDF7F9FA5C
:1056700040F6B8321D491C48FDF79AFA1A4B1B68D0
:10568000DA68194B1B6842F01002DA60164BDB6BCC
:105690001B681A68144BDB6B1B6822F008021A6047
:1056A00001F070FB00F0CAFEFFF77EFA6420FDF700
:1056B000E9F84FF400710E48FCF77BFB0D4B5B786B
:1056C000012BF3D10B4B00225A7008490A4801F014
:1056D00007FFEBE700ED00E0000001083C000020C0
:1056E000209101083C91010850830020967700200A
:1056F00000140240947700204C91010880B594B0CA
:1057000000AF07F1200330220021184602F046F9CD
:1057100007F10C0300221A605A609A60DA601A617D
:105720000023BB60284B1B6C274A43F08053136453
:10573000254B1B6C03F08053BB60BB6800237B6070
:10574000224B1B68214A43F4804313601F4B1B68A4
:1057500003F480437B607B6801233B624FF480331A
:105760007B620223BB634FF48003FB6304233B642F
:10577000A8237B640223BB640423FB6407F120039A
:105780001846FBF7C3F90346002B01D000F032F8AE
:105790000F23FB6002233B6100237B614FF4A05386
:1057A000BB614FF48053FB6107F10C0305211846E0
:1057B000FBF724FC0346002B01D000F01BF800BFD0
:1057C0005037BD4680BD00BF003802400070004029
:1057D00080B582B000AF78607B681B68044A934252
:1057E00001D1FDF72FF800BF0837BD4680BD00BFCF
:1057F0000010004080B400AF72B600BF00BFFDE7EC
:1058000080B500AF40F6B8320021074802F0C6F874
:10581000064B00221A80064B00221A80054B0022FC
:105820001A7000BF80BD00BF0052002074690020C4
:10583000BA5D0020B85D002080B500AF0E48FDF7CE
:1058400010FA40F6B8320D490B48FDF7B1F90A4B92
:105850001B68DA68084B1B6842F01002DA60064BDE
:10586000DB6B1B681A68044BDB6B1B6822F00802B9
:105870001A6000BF80BD00BF98830020DA6B002053
:1058800080B5C6B000AF07F58C73A3F586731860BA
:1058900007F58C73A3F58873196007F58C73A3F56E
:1058A0008A731A60FFF7ACFF07F58C73A3F5867354
:1058B00007F114001B68374A4FF4807101F034FF80
:1058C00007F114031846FAF719FE03469AB207F1D6
:1058D00014014FF47A733048FDF748F807F58C73DC
:1058E000A3F5867319682D4801F0FAFDFCF7BEFF99
:1058F000C7F8140133E02A4B1B78DBB2002B2BD006
:10590000274B00221A70274B1B889BB21A46264948
:10591000264802F0F8F8234B1B889BB21A46234B0B
:10592000002199542149224801F0DAFD07F58C73D2
:10593000A3F5887319681D4802F05BF80346002B35
:1059400001D0012321E01B49184802F052F8034618
:10595000002B01D0002318E00220FFF778F9FCF7B4
:1059600085FF0246D7F81431D31A07F58C72A2F5D9
:105970008A7212689A42BED807F58C73A3F58673B3
:1059800019680D4801F0ACFD0023184607F58C7727
:10599000BD4680BD589101089883002060910108A0
:1059A000B85D0020BA5D002000520020BC5D0020E0
:1059B00070910108809101088891010880B500AFBD
:1059C00040F6B83203490448FFF75AFF0346184629
:1059D00080BD00BF9C910108A091010880B582B0F4
:1059E00000AF0A23FB711BE040F6B8322049214882
:1059F000FFF746FF0346002B03D01F4801F0D8FDF8
:105A000013E01E4801F0D4FD4FF4FA60FFF71FF9D0
:105A1000FB79002B04D11A4801F0CAFD002322E0D3
:105A2000FB795A1EFA71002BDED10523FB7111E0C0
:105A300040F6B83213491448FFF722FF0346002B03
:105A400004D0124801F0B4FD01230CE04FF4FA60D9
:105A5000FFF7FDF8FB795A1EFA71002BE8D10C48CC
:105A600001F0A6FD002318460837BD4680BD00BFE3
:105A7000A4910108B0910108BC910108D4910108DA
:105A8000F09101080C920108189201082492010873
:105A90003892010880B5C6B002AF07F58873A3F548
:105AA0008273186007F58873A3F58473196007F58E
:105AB0008873A3F586731A6007F58873A3F582735C
:105AC00007F1100007F58872A2F58672126801923C
:105AD00007F58872A2F58472126800921B68094A61
